{
    "contractName": "EvmToSubstrate",
    "abi": [
        {
            "anonymous": false,
            "inputs": [
                {
                    "indexed": false,
                    "internalType": "address",
                    "name": "_toEth",
                    "type": "address"
                },
                {
                    "indexed": false,
                    "internalType": "uint256",
                    "name": "_toSub",
                    "type": "uint256"
                },
                {
                    "indexed": false,
                    "internalType": "address",
                    "name": "_collection",
                    "type": "address"
                },
                {
                    "indexed": false,
                    "internalType": "uint256",
                    "name": "_tokenId",
                    "type": "uint256"
                }
            ],
            "name": "MintToSub",
            "type": "event"
        },
        {
            "inputs": [
                {
                    "internalType": "address",
                    "name": "_collection",
                    "type": "address"
                },
                {
                    "internalType": "uint256",
                    "name": "_substrateReceiver",
                    "type": "uint256"
                }
            ],
            "name": "mintToSubstrate",
            "outputs": [],
            "stateMutability": "nonpayable",
            "type": "function"
        },
        {
            "inputs": [
                {
                    "internalType": "address",
                    "name": "_collection",
                    "type": "address"
                },
                {
                    "internalType": "uint256",
                    "name": "_substrateReceiver",
                    "type": "uint256"
                },
                {
                    "components": [
                        {
                            "internalType": "string",
                            "name": "field_0",
                            "type": "string"
                        },
                        {
                            "internalType": "bytes",
                            "name": "field_1",
                            "type": "bytes"
                        }
                    ],
                    "internalType": "struct Tuple21[]",
                    "name": "_properties",
                    "type": "tuple[]"
                }
            ],
            "name": "mintToSubstrateBulkProperty",
            "outputs": [],
            "stateMutability": "nonpayable",
            "type": "function"
        },
        {
            "inputs": [
                {
                    "internalType": "address",
                    "name": "_collection",
                    "type": "address"
                },
                {
                    "internalType": "uint256",
                    "name": "_substrateReceiver",
                    "type": "uint256"
                },
                {
                    "components": [
                        {
                            "internalType": "string",
                            "name": "key",
                            "type": "string"
                        },
                        {
                            "internalType": "bytes",
                            "name": "value",
                            "type": "bytes"
                        }
                    ],
                    "internalType": "struct Property[]",
                    "name": "properties",
                    "type": "tuple[]"
                }
            ],
            "name": "mintToSubstrateWithProperty",
            "outputs": [],
            "stateMutability": "nonpayable",
            "type": "function"
        }
    ],
    "bytecode": "608060405234801561001057600080fd5b506111d4806100206000396000f3fe608060405234801561001057600080fd5b50600436106100415760003560e01c80633a0dbb1a14610046578063440dff9d1461005b5780637a8d97861461006e575b600080fd5b610059610054366004610d6f565b610081565b005b610059610069366004610d6f565b610472565b61005961007c366004610dc9565b6109fb565b604051639811b0c760e01b8152336004820152849081906001600160a01b03821690639811b0c790602401602060405180830381865afa1580156100c9573d6000803e3d6000fd5b505050506040513d601f19601f820116820180604052508101906100ed9190610df3565b6101125760405162461bcd60e51b815260040161010990610e1c565b60405180910390fd5b82806101555760405162461bcd60e51b815260206004820152601260248201527150726f70657269657320697320656d70747960701b6044820152606401610109565b60008790506000816001600160a01b031663d34b55b86040518163ffffffff1660e01b8152600401600060405180830381865afa15801561019a573d6000803e3d6000fd5b505050506040513d6000823e601f3d908101601f191682016040526101c29190810190610e82565b805160209182012060408051808201909152600a815269526546756e6769626c6560b01b920191909152905060007f3248d02b1e2f292b1142854ebdeec13d4b4f9224dbcdb24a3d7810fe54b7b2958201156104165760408051808201909152600381526213919560ea1b6020909101527f63bec732f5ecee1b8b708f2f01c23aa0f0a08a1f0df248cedda343c476ebfe9682016103b4576040516335313c2160e11b81523060048201528a906001600160a01b03821690636a627842906024016020604051808303816000875af11580156102a2573d6000803e3d6000fd5b505050506040513d601f19601f820116820180604052508101906102c69190610f4c565b604051630a769d3760e11b81529092506001600160a01b038216906314ed3a6e906102f99085908d908d90600401610fd4565b600060405180830381600087803b15801561031357600080fd5b505af1158015610327573d6000803e3d6000fd5b5050604080518082018252308152600060208083018290528351808501855291825281018f9052915163d5cf430b60e01b81526001600160a01b038616945063d5cf430b935061037c92908790600401611088565b600060405180830381600087803b15801561039657600080fd5b505af11580156103aa573d6000803e3d6000fd5b5050505050610416565b60405162461bcd60e51b815260206004820152603160248201527f57726f6e6720636f6c6c656374696f6e20747970652e20576f726b73206f6e6c6044820152701e481dda5d1a08139195081bdc88149195607a1b6064820152608401610109565b6040805160008152602081018b90526001600160a01b038c16818301526060810183905290517ffb3433367f20c42151d30b3d2c634726a94c4f9fa7d45120606029741aeb75359181900360800190a150505050505050505050565b604051639811b0c760e01b8152336004820152849081906001600160a01b03821690639811b0c790602401602060405180830381865afa1580156104ba573d6000803e3d6000fd5b505050506040513d601f19601f820116820180604052508101906104de9190610df3565b6104fa5760405162461bcd60e51b815260040161010990610e1c565b828061053d5760405162461bcd60e51b815260206004820152601260248201527150726f70657269657320697320656d70747960701b6044820152606401610109565b60008790506000816001600160a01b031663d34b55b86040518163ffffffff1660e01b8152600401600060405180830381865afa158015610582573d6000803e3d6000fd5b505050506040513d6000823e601f3d908101601f191682016040526105aa9190810190610e82565b805160209182012060408051808201909152600a815269526546756e6769626c6560b01b920191909152905060007f3248d02b1e2f292b1142854ebdeec13d4b4f9224dbcdb24a3d7810fe54b7b29582016108065760008a9050806001600160a01b03166375794a3c6040518163ffffffff1660e01b8152600401602060405180830381865afa158015610642573d6000803e3d6000fd5b505050506040513d601f19601f820116820180604052508101906106669190610f4c565b6040516335313c2160e11b81523060048201529092506001600160a01b03821690636a627842906024016020604051808303816000875af11580156106af573d6000803e3d6000fd5b505050506040513d601f19601f820116820180604052508101906106d39190610f4c565b5060005b858110156107b257816001600160a01b0316631752d67b848c8c85818110610701576107016110c1565b905060200281019061071391906110d7565b61071d90806110f7565b8e8e8781811061072f5761072f6110c1565b905060200281019061074191906110d7565b61074f9060208101906110f7565b6040518663ffffffff1660e01b815260040161076f95949392919061113e565b600060405180830381600087803b15801561078957600080fd5b505af115801561079d573d6000803e3d6000fd5b50505050806107ab90611177565b90506106d7565b50604080518082018252308152600060208083018290528351808501855291825281018d9052915163d5cf430b60e01b81526001600160a01b0384169263d5cf430b9261037c929091908790600401611088565b60408051808201909152600381526213919560ea1b6020909101527f63bec732f5ecee1b8b708f2f01c23aa0f0a08a1f0df248cedda343c476ebfe9682016103b45760008a9050806001600160a01b03166375794a3c6040518163ffffffff1660e01b8152600401602060405180830381865afa15801561088b573d6000803e3d6000fd5b505050506040513d601f19601f820116820180604052508101906108af9190610f4c565b6040516335313c2160e11b81523060048201529092506001600160a01b03821690636a627842906024016020604051808303816000875af11580156108f8573d6000803e3d6000fd5b505050506040513d601f19601f8201168201806040525081019061091c9190610f4c565b5060005b858110156107b257816001600160a01b0316631752d67b848c8c8581811061094a5761094a6110c1565b905060200281019061095c91906110d7565b61096690806110f7565b8e8e87818110610978576109786110c1565b905060200281019061098a91906110d7565b6109989060208101906110f7565b6040518663ffffffff1660e01b81526004016109b895949392919061113e565b600060405180830381600087803b1580156109d257600080fd5b505af11580156109e6573d6000803e3d6000fd5b50505050806109f490611177565b9050610920565b604051639811b0c760e01b8152336004820152829081906001600160a01b03821690639811b0c790602401602060405180830381865afa158015610a43573d6000803e3d6000fd5b505050506040513d601f19601f82011682018060405250810190610a679190610df3565b610a835760405162461bcd60e51b815260040161010990610e1c565b60008490506000816001600160a01b031663d34b55b86040518163ffffffff1660e01b8152600401600060405180830381865afa158015610ac8573d6000803e3d6000fd5b505050506040513d6000823e601f3d908101601f19168201604052610af09190810190610e82565b805160209182012060408051808201909152600a815269526546756e6769626c6560b01b920191909152905060007f3248d02b1e2f292b1142854ebdeec13d4b4f9224dbcdb24a3d7810fe54b7b2958201610c3e576040516335313c2160e11b815230600482015287906001600160a01b03821690636a627842906024015b6020604051808303816000875af1158015610b8e573d6000803e3d6000fd5b505050506040513d601f19601f82011682018060405250810190610bb29190610f4c565b604080518082018252308152600060208083018290528351808501855291825281018b9052915163d5cf430b60e01b81529294506001600160a01b0384169263d5cf430b92610c0692918790600401611088565b600060405180830381600087803b158015610c2057600080fd5b505af1158015610c34573d6000803e3d6000fd5b5050505050610cae565b60408051808201909152600381526213919560ea1b6020909101527f63bec732f5ecee1b8b708f2f01c23aa0f0a08a1f0df248cedda343c476ebfe9682016103b4576040516335313c2160e11b815230600482015287906001600160a01b03821690636a62784290602401610b6f565b6040805160008152602081018890526001600160a01b038916818301526060810183905290517ffb3433367f20c42151d30b3d2c634726a94c4f9fa7d45120606029741aeb75359181900360800190a150505050505050565b80356001600160a01b0381168114610d1e57600080fd5b919050565b60008083601f840112610d3557600080fd5b50813567ffffffffffffffff811115610d4d57600080fd5b6020830191508360208260051b8501011115610d6857600080fd5b9250929050565b60008060008060608587031215610d8557600080fd5b610d8e85610d07565b935060208501359250604085013567ffffffffffffffff811115610db157600080fd5b610dbd87828801610d23565b95989497509550505050565b60008060408385031215610ddc57600080fd5b610de583610d07565b946020939093013593505050565b600060208284031215610e0557600080fd5b81518015158114610e1557600080fd5b9392505050565b60208082526030908201527f4f6e6c7920636f6c6c656374696f6e2061646d696e2f6f776e65722063616e2060408201526f18d85b1b081d1a1a5cc81b595d1a1bd960821b606082015260800190565b634e487b7160e01b600052604160045260246000fd5b60006020808385031215610e9557600080fd5b825167ffffffffffffffff80821115610ead57600080fd5b818501915085601f830112610ec157600080fd5b815181811115610ed357610ed3610e6c565b604051601f8201601f19908116603f01168101908382118183101715610efb57610efb610e6c565b816040528281528886848701011115610f1357600080fd5b600093505b82841015610f355784840186015181850187015292850192610f18565b600086848301015280965050505050505092915050565b600060208284031215610f5e57600080fd5b5051919050565b6000808335601e19843603018112610f7c57600080fd5b830160208101925035905067ffffffffffffffff811115610f9c57600080fd5b803603821315610d6857600080fd5b81835281816020850137506000828201602090810191909152601f909101601f19169091010190565b60006040808301868452602082818601528186835260608601905060608760051b8701019250876000805b8981101561107857888603605f190184528235368c9003603e19018112611024578283fd5b8b016110308180610f65565b8989526110408a8a018284610fab565b91505061104f87830183610f65565b9250888203888a0152611063828483610fab565b98505050938501935091840191600101610fff565b50939a9950505050505050505050565b83516001600160a01b03908116825260209485015185830152835116604082015291909201516060820152608081019190915260a00190565b634e487b7160e01b600052603260045260246000fd5b60008235603e198336030181126110ed57600080fd5b9190910192915050565b6000808335601e1984360301811261110e57600080fd5b83018035915067ffffffffffffffff82111561112957600080fd5b602001915036819003821315610d6857600080fd5b858152606060208201526000611158606083018688610fab565b828103604084015261116b818587610fab565b98975050505050505050565b60006001820161119757634e487b7160e01b600052601160045260246000fd5b506001019056fea26469706673582212206fee43cab49543809f191e238525b8a47306c665c42f86e318153d2b9e9d1de064736f6c63430008110033",
    "sourcePath": "/home/praetorp/Repos/Polkadot/unique-chain/tests/src/eth/evmToSubstrate/EvmToSubstrateHelper.sol",
    "compiler": {
        "name": "solc",
        "version": "0.8.17+commit.8df45f5f"
    },
    "functionHashes": {
        "mintToSubstrate(address,uint256)": "7a8d9786",
        "mintToSubstrateBulkProperty(address,uint256,(string,bytes)[])": "3a0dbb1a",
        "mintToSubstrateWithProperty(address,uint256,(string,bytes)[])": "440dff9d"
    },
    "gasEstimates": {
        "creation": {
            "codeDepositCost": "912800",
            "executionCost": "948",
            "totalCost": "913748"
        },
        "external": {
            "mintToSubstrate(address,uint256)": "infinite",
            "mintToSubstrateBulkProperty(address,uint256,(string,bytes)[])": "infinite",
            "mintToSubstrateWithProperty(address,uint256,(string,bytes)[])": "infinite"
        }
    }
}