{
    "contractName": "EvmToSubstrate",
    "abi": [
        {
            "anonymous": false,
            "inputs": [
                {
                    "indexed": false,
                    "internalType": "address",
                    "name": "_toEth",
                    "type": "address"
                },
                {
                    "indexed": false,
                    "internalType": "uint256",
                    "name": "_toSub",
                    "type": "uint256"
                },
                {
                    "indexed": false,
                    "internalType": "address",
                    "name": "_collection",
                    "type": "address"
                },
                {
                    "indexed": false,
                    "internalType": "uint256",
                    "name": "_tokenId",
                    "type": "uint256"
                }
            ],
            "name": "MintToSub",
            "type": "event"
        },
        {
            "inputs": [
                {
                    "internalType": "address",
                    "name": "_collection",
                    "type": "address"
                },
                {
                    "internalType": "uint256",
                    "name": "_substrateReceiver",
                    "type": "uint256"
                }
            ],
            "name": "mintToSubstrate",
            "outputs": [],
            "stateMutability": "nonpayable",
            "type": "function"
        },
        {
            "inputs": [
                {
                    "internalType": "address",
                    "name": "_collection",
                    "type": "address"
                },
                {
                    "internalType": "uint256",
                    "name": "_substrateReceiver",
                    "type": "uint256"
                },
                {
                    "components": [
                        {
                            "internalType": "string",
                            "name": "key",
                            "type": "string"
                        },
                        {
                            "internalType": "bytes",
                            "name": "value",
                            "type": "bytes"
                        }
                    ],
                    "internalType": "struct Property[]",
                    "name": "properties",
                    "type": "tuple[]"
                }
            ],
            "name": "mintToSubstrateWithProperty",
            "outputs": [],
            "stateMutability": "nonpayable",
            "type": "function"
        }
    ],
    "bytecode": "608060405234801561001057600080fd5b50610e46806100206000396000f3fe608060405234801561001057600080fd5b50600436106100365760003560e01c8063440dff9d1461003b5780637a8d978614610050575b600080fd5b61004e610049366004610aa4565b610063565b005b61004e61005e366004610b2e565b6106f9565b604051639811b0c760e01b8152336004820152849081906001600160a01b03821690639811b0c790602401602060405180830381865afa1580156100ab573d6000803e3d6000fd5b505050506040513d601f19601f820116820180604052508101906100cf9190610b58565b6100f45760405162461bcd60e51b81526004016100eb90610b81565b60405180910390fd5b82806101375760405162461bcd60e51b815260206004820152601260248201527150726f70657269657320697320656d70747960701b60448201526064016100eb565b60008790506000816001600160a01b031663d34b55b86040518163ffffffff1660e01b8152600401600060405180830381865afa15801561017c573d6000803e3d6000fd5b505050506040513d6000823e601f3d908101601f191682016040526101a49190810190610be7565b805160209182012060408051808201909152600a815269526546756e6769626c6560b01b920191909152905060007f3248d02b1e2f292b1142854ebdeec13d4b4f9224dbcdb24a3d7810fe54b7b295820161043f5760008a9050806001600160a01b03166375794a3c6040518163ffffffff1660e01b8152600401602060405180830381865afa15801561023c573d6000803e3d6000fd5b505050506040513d601f19601f820116820180604052508101906102609190610cb1565b6040516340c10f1960e01b8152306004820152602481018290529092506001600160a01b038216906340c10f19906044016020604051808303816000875af11580156102b0573d6000803e3d6000fd5b505050506040513d601f19601f820116820180604052508101906102d49190610b58565b5060005b858110156103b357816001600160a01b0316631752d67b848c8c8581811061030257610302610cca565b90506020028101906103149190610ce0565b61031e9080610d00565b8e8e8781811061033057610330610cca565b90506020028101906103429190610ce0565b610350906020810190610d00565b6040518663ffffffff1660e01b8152600401610370959493929190610d77565b600060405180830381600087803b15801561038a57600080fd5b505af115801561039e573d6000803e3d6000fd5b50505050806103ac90610db0565b90506102d8565b50604080518082018252308152600060208083018290528351808501855291825281018d9052915163d5cf430b60e01b81526001600160a01b0384169263d5cf430b92610407929091908790600401610dd7565b600060405180830381600087803b15801561042157600080fd5b505af1158015610435573d6000803e3d6000fd5b505050505061069d565b60408051808201909152600381526213919560ea1b6020909101527f63bec732f5ecee1b8b708f2f01c23aa0f0a08a1f0df248cedda343c476ebfe96820161063b5760008a9050806001600160a01b03166375794a3c6040518163ffffffff1660e01b8152600401602060405180830381865afa1580156104c4573d6000803e3d6000fd5b505050506040513d601f19601f820116820180604052508101906104e89190610cb1565b6040516340c10f1960e01b8152306004820152602481018290529092506001600160a01b038216906340c10f19906044016020604051808303816000875af1158015610538573d6000803e3d6000fd5b505050506040513d601f19601f8201168201806040525081019061055c9190610b58565b5060005b858110156103b357816001600160a01b0316631752d67b848c8c8581811061058a5761058a610cca565b905060200281019061059c9190610ce0565b6105a69080610d00565b8e8e878181106105b8576105b8610cca565b90506020028101906105ca9190610ce0565b6105d8906020810190610d00565b6040518663ffffffff1660e01b81526004016105f8959493929190610d77565b600060405180830381600087803b15801561061257600080fd5b505af1158015610626573d6000803e3d6000fd5b505050508061063490610db0565b9050610560565b60405162461bcd60e51b815260206004820152603160248201527f57726f6e6720636f6c6c656374696f6e20747970652e20576f726b73206f6e6c6044820152701e481dda5d1a08139195081bdc88149195607a1b60648201526084016100eb565b6040805160008152602081018b90526001600160a01b038c16818301526060810183905290517ffb3433367f20c42151d30b3d2c634726a94c4f9fa7d45120606029741aeb75359181900360800190a150505050505050505050565b604051639811b0c760e01b8152336004820152829081906001600160a01b03821690639811b0c790602401602060405180830381865afa158015610741573d6000803e3d6000fd5b505050506040513d601f19601f820116820180604052508101906107659190610b58565b6107815760405162461bcd60e51b81526004016100eb90610b81565b60008490506000816001600160a01b031663d34b55b86040518163ffffffff1660e01b8152600401600060405180830381865afa1580156107c6573d6000803e3d6000fd5b505050506040513d6000823e601f3d908101601f191682016040526107ee9190810190610be7565b805160209182012060408051808201909152600a815269526546756e6769626c6560b01b920191909152905060007f3248d02b1e2f292b1142854ebdeec13d4b4f9224dbcdb24a3d7810fe54b7b29582016109aa576000879050806001600160a01b03166375794a3c6040518163ffffffff1660e01b8152600401602060405180830381865afa158015610886573d6000803e3d6000fd5b505050506040513d601f19601f820116820180604052508101906108aa9190610cb1565b6040516340c10f1960e01b8152306004820152602481018290529092506001600160a01b038216906340c10f19906044016020604051808303816000875af11580156108fa573d6000803e3d6000fd5b505050506040513d601f19601f8201168201806040525081019061091e9190610b58565b50604080518082018252308152600060208083018290528351808501855291825281018a9052915163d5cf430b60e01b81526001600160a01b0384169263d5cf430b92610972929091908790600401610dd7565b600060405180830381600087803b15801561098c57600080fd5b505af11580156109a0573d6000803e3d6000fd5b5050505050610a2f565b60408051808201909152600381526213919560ea1b6020909101527f63bec732f5ecee1b8b708f2f01c23aa0f0a08a1f0df248cedda343c476ebfe96820161063b576000879050806001600160a01b03166375794a3c6040518163ffffffff1660e01b8152600401602060405180830381865afa158015610886573d6000803e3d6000fd5b6040805160008152602081018890526001600160a01b038916818301526060810183905290517ffb3433367f20c42151d30b3d2c634726a94c4f9fa7d45120606029741aeb75359181900360800190a150505050505050565b80356001600160a01b0381168114610a9f57600080fd5b919050565b60008060008060608587031215610aba57600080fd5b610ac385610a88565b935060208501359250604085013567ffffffffffffffff80821115610ae757600080fd5b818701915087601f830112610afb57600080fd5b813581811115610b0a57600080fd5b8860208260051b8501011115610b1f57600080fd5b95989497505060200194505050565b60008060408385031215610b4157600080fd5b610b4a83610a88565b946020939093013593505050565b600060208284031215610b6a57600080fd5b81518015158114610b7a57600080fd5b9392505050565b60208082526030908201527f4f6e6c7920636f6c6c656374696f6e2061646d696e2f6f776e65722063616e2060408201526f18d85b1b081d1a1a5cc81b595d1a1bd960821b606082015260800190565b634e487b7160e01b600052604160045260246000fd5b60006020808385031215610bfa57600080fd5b825167ffffffffffffffff80821115610c1257600080fd5b818501915085601f830112610c2657600080fd5b815181811115610c3857610c38610bd1565b604051601f8201601f19908116603f01168101908382118183101715610c6057610c60610bd1565b816040528281528886848701011115610c7857600080fd5b600093505b82841015610c9a5784840186015181850187015292850192610c7d565b600086848301015280965050505050505092915050565b600060208284031215610cc357600080fd5b5051919050565b634e487b7160e01b600052603260045260246000fd5b60008235603e19833603018112610cf657600080fd5b9190910192915050565b6000808335601e19843603018112610d1757600080fd5b83018035915067ffffffffffffffff821115610d3257600080fd5b602001915036819003821315610d4757600080fd5b9250929050565b81835281816020850137506000828201602090810191909152601f909101601f19169091010190565b858152606060208201526000610d91606083018688610d4e565b8281036040840152610da4818587610d4e565b98975050505050505050565b600060018201610dd057634e487b7160e01b600052601160045260246000fd5b5060010190565b83516001600160a01b03908116825260209485015185830152835116604082015291909201516060820152608081019190915260a0019056fea2646970667358221220da8ff84a103be9db6b42d85b4650dc8a633327ec7c4a8dc98e58ce322129c48664736f6c63430008110033",
    "sourcePath": "/home/praetorp/Repos/Polkadot/unique-chain/tests/src/eth/evmToSubstrate/EvmToSubstrateHelper.sol",
    "compiler": {
        "name": "solc",
        "version": "0.8.17+commit.8df45f5f"
    },
    "functionHashes": {
        "mintToSubstrate(address,uint256)": "7a8d9786",
        "mintToSubstrateWithProperty(address,uint256,(string,bytes)[])": "440dff9d"
    },
    "gasEstimates": {
        "creation": {
            "codeDepositCost": "730800",
            "executionCost": "766",
            "totalCost": "731566"
        },
        "external": {
            "mintToSubstrate(address,uint256)": "infinite",
            "mintToSubstrateWithProperty(address,uint256,(string,bytes)[])": "infinite"
        }
    }
}